:020000006D2968
:0E000600213083120313FD00FD0B07280800B4
:06001400000000000800DE
:10001A000F3083120313FC004730FD00FD0B132839
:0A002A00FC0B132800000000080082
:1000340083120313C71B2028881221288816471B04
:100044002528081226280816C71A2A2888112B28BA
:100054008815471A2F280811302808152018342825
:1000640008143528081088140A208810C7193C2859
:1000740088123D2888164719412808124228081674
:10008400C718462888114728881547184B2808118F
:100094004C280815201850280814512808108814D2
:1000A4000A208810201C58280D20592803200800F5
:1000B400083083120313C500C6014508F000C503C8
:1000C4007008031980280618682865281A30FD006E
:1000D400FD0B6A280000061C7F284508F10001304A
:1000E400F000710803197A28F00D7010FF3E74288F
:1000F4007008C604061C7F287C285F284608F00088
:020104000800F1
:0E0106008312031322088A00210882000800D9
:100114008312031320104508C7001A202014080076
:10012400A428803083120313C100B728C030C10053
:10013400B7289430C100B728D430C100B728803024
:10014400C100B728831203134108013A0319932805
:100154004108023A031998284108033A03199B28D5
:100164004108043A03199E28A1284203F0004108DB
:10017400F0077008C1007008C7001A202010C401DD
:1001840044084307840000080319D028440843079F
:1001940084000008C5008A20C40AC228201408006C
:1001A40083120313F8010830FC00700DF80D740875
:1001B400F8020318DF28F8070310F00DFC0BD7280A
:0201C400080031
:1001C60083208A110A128000840AA10A0319A20A4E
:0801D600F003031DE3280800FB
:1001DE00831203130610831606104130FC00EE3016
:1001EE00FD00FD0BF828FC0BF82800008312061406
:1001FE001330FD00FD0B01290000000083160614CC
:10020E008312061C0B29072906180E290B29061C1A
:10021E0011290E295A2041088400700880005A20A6
:10022E005A2042088400700880005A205A20080084
:10023E0083160313881008100811881108128812EB
:10024E0083128810081088120812881108110D20C8
:10025E000D200D208815081588140A2088100D20F1
:10026E0088140A2088100D2088140A2088100D206A
:10027E00081188140A2088100D2088140A2088106E
:10028E008811881688140A2088100D2088120815E7
:10029E0088140A208810081188140A2088100D204E
:1002AE0088140A208810081588140A2088100D203A
:1002BE00081188140A208810881608168815081543
:0C02CE0088140A2088100D20201408005D
:1002DA007030831603138F00031789010B30FB005C
:1002EA002630FC005D30FD00FD0B7929FC0B7929D5
:1002FA00FB0B7929000000001F210C30C7001A20CF
:10030A000130C7001A205430A5006530A6006D30B0
:10031A00A7007030A8002030A9003D30AA00203084
:10032A00AB003030AC003030AD002E30AE00303093
:10033A00AF002030B0004330B100B2014830B30002
:10034A007530B4006D30B5006930B6002030B700A2
:10035A003D30B8002030B9003030BA003030BB0030
:10036A002E30BC003030BD002030BE002530BF002A
:10037A00C0012330C1002430C200EF200A30F4004B
:10038A002408F000D22030307007AC000A30F400A4
:10039A002408F000D2207808F00030307007AD0051
:1003AA000A30F4002308F000D22030307007BA0077
:1003BA000A30F4002308F000D2207808F000303028
:1003CA007007BB00DF30B0000130C1000130C2004D
:1003DA002530C30092200230C1000130C200333000
:1003EA00C30092200B30FB002630FC005D30FD007C
:1003FA00FD0BFD29FC0BFD29FB0BFD29000000006C
:04040A008829062A0D
:00000001FF
