:020000000328D3
:10000600831686018E018F0180300F06C000803076
:100016004002031D102808300E02031831280E086E
:10002600C1000130C000410803191D28C00D401051
:10003600FF3E17284008831286000230CB000430AA
:10004600CC00BA30CD00CD0B2628CC0B2628CB0B06
:10005600262800008E0A03198F0A072806308E000C
:1000660000308F008030C00080300F064002031D34
:100076003E280E08003C031860280E08C100013017
:10008600C000410803194B28C00D4010FF3E45280B
:100096008312400886000230CB000430CC00BA3010
:1000A600CD00CD0B5428CC0B5428CB0B5428000084
:0E00B60001308E02031C8F03352805286128B7
:02400E00F93F78
:00000001FF
