:020000000328D3
:10000600FF308316850086018312051848288E0165
:100016008F0180300F06C00080304002031D152876
:1000260005300E020318472800300F06031D1D2851
:1000360001300E060319302800300F06031D25284F
:1000460003300E060319302800300F06031D2D2835
:1000560005300E06031930283428831255308600E1
:1000660037288312AA3086000230CB008630CC00B7
:100076009930CD00CD0B3D28CC0B3D28CB0B3D2830
:100086008E0A03198F0A0C288C2883128518892852
:100096008E018F0180300F06C00080304002031DA4
:1000A600562805300E020318882800300F06031D57
:1000B6005E2801300E060319712800300F06031D55
:1000C600662803300E060319712800300F06031D3B
:1000D6006E2805300E060319712875288312CC3058
:1000E600860078288312333086000230CB008630B3
:1000F600CC009930CD00CD0B7E28CC0B7E28CB0BC7
:100106007E288E0A03198F0A4D288C288312FF3009
:06011600860007288D2879
:02400E00F93F78
:00000001FF
