:020000003C289A
:10000800CF00030E830190000A0891008A01803016
:100018000D06C00080304002031D14280A300C026F
:1000280003181E2883128C0A03198D0A0B113C3001
:10003800810023288312013085068C018D01110867
:0C0048008A00100E8300CF0E4F0E09003E
:0C00540083120F088A000E0882000800CA
:100060002A208A110A128000840A8E0A03198F0A34
:08007000C003031D3028080045
:1000780083128C018D018316850183128501A030BE
:100088008B000730831681003C30831281004B2897
:02400E00F13F80
:00000001FF
