:020000000329D2
:0E000600213083120313FD00FD0B07280800B4
:100014000F3083120313FC004730FD00FD0B102842
:0A002400FC0B10280000000008008B
:06002E00000000000800C4
:1000340083120313D71B2028861221288616571BE8
:100044002528061226280616D71A2A2886112B28B0
:100054008615571A2F280611302806154E183428ED
:10006400061435280610861417208610D7193C2844
:1000740086123D288616571941280612422806166C
:10008400D718462886114728861557184B28061175
:100094004C2806154E1850280614512806108614AC
:1000A400172086104E1C58280A20592803200800BF
:0E00B4008312031350088A004F0882000800D0
:1000C200831203134E105608D7001A204E1408004C
:1000D2008316031386100610061186110612861265
:1000E20083128610061086120612861106110A2045
:1000F2000A200A20861506158614172086100A2063
:100102008614172086100A208614172086100A20CB
:1001120006118614172086100A20861417208610CE
:10012200861186168614172086100A208612061556
:1001320086141720861006118614172086100A20AE
:1001420086141720861006158614172086100A209A
:1001520006118614172086108616061686150615B1
:0C0162008614172086100A204E14080096
:10016E00C928803083120313D200DC28C030D2009D
:10017E00DC289430D200DC28D430D200DC28803049
:10018E00D200DC28831203135208013A0319B8284F
:10019E005208023A0319BD285208033A0319C0281F
:1001AE005208043A0319C328C6285303F000520814
:1001BE00F0077008D2007008D7001A204E10D50133
:1001CE0055085407840000080319F52855085407EC
:1001DE0084000008D6006120D50AE7284E140800D6
:1001EE005A208A110A128000840ACF0A0319D00AF3
:0801FE00F003031DF7280800BF
:10020600822169200C30D7001A20D10126305102F4
:10021600031827290130D2001130D3003730D4001B
:10022600B7201830D7001A200430FB000C30FC0031
:100236003330FD00FD0B1D29FC0B1D29FB0B1D2971
:1002460000000000D10A09290130D7001A20263003
:10025600D1004C30510203184A290230D200113025
:10026600D3002030D400B7201830D7001A2004302D
:10027600FB000C30FC003330FD00FD0B4029FC0B6D
:100286004029FB0B402900000000D10A2C2901302F
:08029600D7001A2008294E29A7
:10030400203084002E3083120313F0005430CF00C9
:080314000130D000F7200800C1
:1002A80045346D346934723420344D344E3420343E
:1002B80033343934393431343234333434343034F7
:0E02C800313431343934313433343834003485
:1002D60045346D346934723420344D344E34203410
:1002E60033343934393431343234333434343034C9
:0E02F600313431343934313433343834003457
:02400E00492F38
:00000001FF
