:02000000E729EE
:0E000600213083120313FD00FD0B07280800B4
:06001400000000000800DE
:10001A000F3083120313FC004730FD00FD0B132839
:0A002A00FC0B132800000000080082
:1000340083160313AD1B21288312861323288312EE
:10004400861783162D1B2928831206132B28831247
:1000540006178316AD1A31288312861233288312A9
:10006400861683162D1A3928831206123B2883120A
:10007400061683162718412883120615432883126F
:10008400061186150A2086118316AD194C28831291
:1000940086134E288312861783162D19542883122B
:1000A40006135628831206178316AD185C2883128C
:1000B40086125E288312861683162D1864288312EE
:1000C4000612662883120616831627186C288312D4
:1000D40006156E288312061186150A2086118316CA
:0C00E400271C76280D2077280320080038
:0E00F000831203136B088A006A08820008005E
:1000FE008316031327102C08AD001A20831627141D
:02010E000800E7
:100110009A28803083160313A800AD28C030A800A9
:10012000AD289430A800AD28D430A800AD28803088
:10013000A800AD28831603132808013A031989285B
:100140002808023A03198E282808033A031991282F
:100150002808043A0319942897282903F00028084E
:10016000F0077008A8007008AD001A208316271049
:10017000AB012B082A07840000080319C7282B08A5
:100180002A0784000008AC007F20AB0AB928271496
:02019000080065
:1001920078208A110A128000840AEA0A0319EB0AFB
:0801A200F003031DC928080049
:1001AA008316031386110611061286120613861386
:1001BA0083128611061186130613861206120D2063
:1001CA000D200D208616061686150A2086110D208A
:1001DA0086150A2086110D2086150A2086110D2003
:1001EA00061286150A2086110D2086150A20861108
:1001FA008612861786150A2086110D208613061682
:10020A0086150A208611061286150A2086110D20E7
:10021A0086150A208611061686150A2086110D20D3
:10022A00061286150A2086118617061786160616DE
:0E023A0086150A2086110D2083162714080051
:1002480083120313F3010830730203185D2906189B
:100258002E292B291330FD00FD0B3029000000004A
:10026800061848297308073CF0007008F1000130AF
:10027800F000710803194429F00D7010FF3E3E2963
:10028800F0097008F2055B297308073CF000700854
:10029800F1000130F000710803195629F00D7010B3
:1002A800FF3E50297008F204061C5B295829F30AFE
:0802B80027297208F00008007C
:1002C00083120313F801F9011030FC00710DF80DD1
:1002D000F90D7408F8027508031C750FF90203186C
:1002E00078297408F80775080318750FF9070310C3
:0A02F000F00DF10DFC0B662908006B
:1002FA008F29803083160313A800A229C030A800D2
:10030A00A2299430A800A229D430A800A2298030BA
:10031A00A800A229831603132808013A03197E2983
:10032A002808023A031983292808033A0319862957
:10033A002808043A031989298C292903F000280876
:10034A00F0077008A80027147008AD001A20831659
:0E035A0027102A08AD001A2083162714080069
:1003680083160313A6011A30FD00FD0BB9290000FE
:1003780083120618CD293530FD00FD0BC129061C56
:10038800C82901308316A6001A30FD00FD0BCA29C2
:040398000000080059
:10039C00831603130610831206102F30FC00BF3097
:1003AC00FD00FD0BD729FC0BD7290000000006141B
:1003BC001330FD00FD0BE02900000000831606142D
:0203CC00080027
:1003CE00E82383160313880183128801831686108F
:1003DE00D5200C30AD001A2001308316AD001A2046
:1003EE00CE21B421831603132608013A031DBE2A1B
:1003FE0024217008EC0024217008EF0024217008DD
:10040E008316A100242170088316A00024217008F1
:10041E00ED00EE016F086C07F000F1010318F10A10
:10042E0083162108F0070318F10A2008F0070318B5
:10043E00F10AFF307005F2007108F3000030F30589
:10044E0083126E087306031D2E2A72086D06031D95
:10045E00AA2A83162108A400A50183126C0883160C
:10046E00A200A3010130A8000230A9002F30AA007B
:10047E0088200230A8000230A9002030AA0088206F
:10048E000130A8000C30A9000A30F4000030F5004D
:10049E002408F0002508F10060210A30F400003035
:1004AE00F50060217808F0007908F1007008303E00
:1004BE008316AA007D210130A8000D30A9000A3054
:1004CE00F4000030F5002408F0002508F10060214A
:1004DE007808F0007908F1007008303E8316AA0003
:1004EE007D210230A8000C30A9000A30F400003043
:1004FE00F5002208F0002308F10060210A30F40014
:10050E000030F50060217808F0007908F1007008DD
:10051E00303E8316AA007D210230A8000D30A900BE
:10052E000A30F4000030F5002208F0002308F10034
:10053E0060217808F0007908F1007008303E8316CB
:10054E00AA007D21BD2A83160C30AD001A20013081
:10055E008316AD001A2001308316A8000130A900C1
:10056E004A30AA008820803083128800D02A0130B9
:10057E008316A8000330A9003E30AA00882002305E
:10058E00A8000130A9005A30AA00882080308312BA
:10059E008800003083162502031DD72A1F3024023F
:1005AE00031CDF2A831208158811081288120813FB
:1005BE00003083162502031DE62A1A302402031C7E
:1005CE00F62A2508003C031DEE2A24081E3C031CB7
:1005DE00F62A8312081188150812881208130030A3
:1005EE0083162502031DFD2A15302402031C0D2B34
:1005FE002508003C031D052B2408193C031C0D2B5C
:10060E0083120811881108168812081300308316F9
:10061E002502031D142B10302402031C242B250845
:10062E00003C031D1C2B2408143C031C242B83129A
:10063E000811881108128816081300308316250237
:10064E00031D2B2B103024020318332B8312081199
:10065E00881108128812081783162308003C031D00
:10066E003A2B22083C3C03184D2B83128814081099
:10067E000B30FB002630FC005D30FD00FD0B452BE2
:10068E00FC0B452BFB0B452B0000000083162308AB
:10069E00003C031D542B22083C3C031C6F2B0030E6
:1006AE002302031D5C2B28302202031C6F2B8312A6
:1006BE00881008100B30FB002630FC005D30FD006A
:1006CE00FD0B672BFC0B672BFB0B672B0000000051
:1006DE00003083162302031D762B283022020318C6
:1006EE00892B8312881008140B30FB002630FC0077
:1006FE005D30FD00FD0B812BFC0B812BFB0B812B49
:10070E00000000000B30FB002630FC005D30FD00C9
:10071E00FD0B8F2BFC0B8F2BFB0B8F2B0000000088
:04072E00F729982BE4
:1007D000203084004A3083120313F0009E30EA0078
:0807E0000330EB00C920080002
:10073C00483475346D3420343A3420342034203429
:0E074C0020342034203420342034253400346E
:10075A00543465346D3470343A34203420342034BF
:0E076A00203420342034203420344334003432
:100778004E346F34203472346534733470346F34CB
:080788006E3473346534003453
:1007900043346834653463346B34203473347534D3
:1007A0006D3420346534723472346F3472340034F2
:1007B000663472346F346D34203474346834653484
:1007C0002034733465346E3473346F3472340034CF
:02400E004A2F37
:00000001FF
